{
  "contractName": "Sender",
  "abi": [
    {
      "constant": true,
      "inputs": [],
      "name": "amount",
      "outputs": [
        {
          "internalType": "uint256",
          "name": "",
          "type": "uint256"
        }
      ],
      "payable": false,
      "stateMutability": "view",
      "type": "function"
    },
    {
      "constant": false,
      "inputs": [
        {
          "internalType": "address payable",
          "name": "_addr",
          "type": "address"
        }
      ],
      "name": "send",
      "outputs": [],
      "payable": true,
      "stateMutability": "payable",
      "type": "function"
    }
  ],
  "bytecode": "0x60806040523460005534801561001457600080fd5b50610118806100246000396000f3fe60806040526004361060265760003560e01c80633e58c58c14602b578063aa8c217c14606c575b600080fd5b606a60048036036020811015603f57600080fd5b81019080803573ffffffffffffffffffffffffffffffffffffffff1690602001909291905050506094565b005b348015607757600080fd5b50607e60dd565b6040518082815260200191505060405180910390f35b8073ffffffffffffffffffffffffffffffffffffffff166108fc349081150290604051600060405180830381858888f1935050505015801560d9573d6000803e3d6000fd5b5050565b6000548156fea265627a7a7231582061f93065b4f7e265775e2c99b6dcd7d6f86cd0924381ad494ce8c1107579efe164736f6c63430005100032",
  "source": "pragma solidity ^0.5.0;\r\n\r\ncontract Sender {\r\n\r\n    uint public amount = msg.value;\r\n\r\n    function send(address payable _addr) payable public {\r\n        _addr.transfer(msg.value);\r\n    }\r\n}",
  "sourcePath": "C:/Users/Brilliant/Documents/web3/decentragram/server/src/contracts/Sender.sol",
  "compiler": {
    "name": "solc",
    "version": "0.5.16+commit.9c3226ce.Emscripten.clang"
  },
  "schemaVersion": "3.2.3",
  "updatedAt": "2022-05-07T14:54:01.356Z",
  "networkType": "ethereum",
  "devdoc": {
    "methods": {}
  },
  "userdoc": {
    "methods": {}
  }
}